:100000000C9446000C9465000C9465000C946500FB
:100010000C9465000C9465000C9465000C946500CC
:100020000C9465000C9465000C9465000C946500BC
:100030000C9465000C94A3000C9465000C9465006E
:100040000C9465000C9465000C9465000C9465009C
:100050000C9465000C9465000C9465000C9465008C
:100060000C9465000C9465000C9465000C9465007C
:100070000C9465000C9465000C9465000C9465006C
:100080000C9465000C9465000C94650011241FBE4F
:10009000CFEFD0E4DEBFCDBF11E0A0E0B1E0E6E4F9
:1000A000F4E000E00BBF02C007900D92A231B1074F
:1000B000D9F711E0A2E1B1E001C01D92A332B1076E
:1000C000E1F70E94C7010C9421020C940000CF9329
:1000D000C82F8A3019F48DE00E9467009091C0000B
:1000E00095FFFCCFC093C60080E090E0CF910895CB
:1000F0008BE0809381008DE790E09093890080935E
:10010000880082E080936F00109285001092840036
:100110008091000190910101A0910201B091030131
:100120008093150190931601A0931701B0931801C5
:100130008FB780688FBF089510928100089581E085
:100140008093190108951F920F920FB60F921124F8
:100150000BB60F922F933F934F935F936F937F93C1
:100160008F939F93AF93BF93EF93FF93809115016C
:1001700090911601A0911701B09118010197A10962
:10018000B1098093150190931601A0931701B093C4
:100190001801892B8A2B8B2B91F40E949F00809150
:1001A000000190910101A0910201B091030180939F
:1001B000150190931601A0931701B0931801FF91B8
:1001C000EF91BF91AF919F918F917F916F915F91CF
:1001D0004F913F912F910F900BBE0F900FBE0F903C
:1001E0001F901895609300017093010180930201A4
:1001F000909303016093150170931601809317018A
:1002000090931801089580911A0190911B018130FB
:10021000910559F018F0029779F015C081E090E04F
:1002200090931B0180931A0112C082E090E090939A
:100230001B0180931A010BC082E090E090931B0198
:1002400080931A0104C010921B0110921A01809130
:100250001A0190911B018130910521F082309105A6
:1002600029F00DC021E02093140109C02091140150
:10027000243011F0220F01C021E0209314012091BD
:10028000140120931E010895809121019091220173
:100290008130910559F018F0029779F015C081E08E
:1002A00090E0909322018093210112C082E090E0BF
:1002B00090932201809321010BC082E090E0909303
:1002C00022018093210104C0109222011092210189
:1002D00080912101909122018130910521F082309D
:1002E000910529F00DC021E02093130109C0209150
:1002F0001301283011F421E001C028E020931301FC
:100300002091130120932001089580911C01909168
:100310001D018130910559F018F0029779F015C050
:1003200081E090E090931D0180931C0112C082E057
:1003300090E090931D0180931C010BC082E090E03F
:1003400090931D0180931C0104C010921D01109216
:100350001C0180911C0190911D018130910519F0C3
:10036000029721F00AC01092120107C0909120015B
:1003700080911E01892B809312018091120180933C
:100380001F0185B980911C0190911D0108958FEF87
:1003900084B915B864E670E080E090E00E94F20055
:1003A0000E94780010921B0110921A0110922201F3
:1003B0001092210110921D0110921C01412C512C10
:1003C0003201812C912C5401C12CD12C760188EE64
:1003D000C81683E0D806E104F10428F00E94030166
:1003E000C12CD12C760188EE881683E09806A104F2
:1003F000B10428F00E944401812C912C540188EE14
:10040000481683E058066104710428F00E948501B3
:10041000412C512C3201809119018823E1F3109273
:10042000190184E6C80ED11CE11CF11C84E6880E7B
:10043000911CA11CB11C84E6480E511C611C711C4E
:06044000C6CFF894FFCFC7
:10044600010000000000000200000000670000003C
:020456000000A4
:00000001FF
