:100000000C9446000C9465000C9465000C946500FB
:100010000C9465000C9465000C9465000C946500CC
:100020000C9465000C9465000C9465000C946500BC
:100030000C9465000C94A3000C9465000C9465006E
:100040000C9465000C9465000C9465000C9465009C
:100050000C9465000C9465000C9465000C9465008C
:100060000C9465000C9465000C9465000C9465007C
:100070000C9465000C9465000C9465000C9465006C
:100080000C9465000C9465000C94650011241FBE4F
:10009000CFEFD0E4DEBFCDBF11E0A0E0B1E0EEE2F3
:1000A000F5E000E00BBF02C007900D92A231B1074E
:1000B000D9F711E0A2E1B1E001C01D92A732B1076A
:1000C000E1F70E9413020C9495020C940000CF9368
:1000D000C82F8A3019F48DE00E9467009091C0000B
:1000E00095FFFCCFC093C60080E090E0CF910895CB
:1000F0008BE0809381008DE790E09093890080935E
:10010000880082E080936F00109285001092840036
:100110008091000190910101A0910201B091030131
:100120008093160190931701A0931801B0931901C1
:100130008FB780688FBF089510928100089581E085
:1001400080931A0108951F920F920FB60F921124F7
:100150000BB60F922F933F934F935F936F937F93C1
:100160008F939F93AF93BF93EF93FF93809116016B
:1001700090911701A0911801B09119010197A1095F
:10018000B1098093160190931701A0931801B093C1
:100190001901892B8A2B8B2B91F40E949F0080914F
:1001A000000190910101A0910201B091030180939F
:1001B000160190931701A0931801B0931901FF91B4
:1001C000EF91BF91AF919F918F917F916F915F91CF
:1001D0004F913F912F910F900BBE0F900FBE0F903C
:1001E0001F901895609300017093010180930201A4
:1001F0009093030160931601709317018093180187
:1002000090931901089580911B0190911C018130F8
:10021000910559F018F0029779F015C081E090E04F
:1002200090931C0180931B0112C082E090E0909398
:100230001C0180931B010BC082E090E090931C0195
:1002400080931B0104C010921C0110921B0180912D
:100250001B0190911C018130910521F082309105A4
:1002600029F00DC021E02093150109C0209115014E
:10027000243011F0220F01C021E0209315012091BC
:10028000150120931F010895809125019091260169
:100290008130910559F018F0029779F015C081E08E
:1002A00090E0909326018093250112C082E090E0B7
:1002B00090932601809325010BC082E090E09093FB
:1002C00026018093250104C0109226011092250179
:1002D00080912501909126018130910521F0823095
:1002E000910529F00DC021E02093140109C020914F
:1002F0001401283011F421E001C028E020931401FA
:100300002091140120932401089580B18095982FA5
:10031000947020912201309123012130310561F048
:1003200020F02230310579F015C021E030E0309323
:1003300023012093220112C022E030E030932301F8
:10034000209322010BC022E030E030932301209360
:10035000220104C010922301109222012091220157
:10036000309123012130310521F02230310529F06F
:100370000FC080E1809313010BC0992349F0809155
:100380001301803111F480E001C080E180931301FA
:100390008091130180932001C901089580911D016E
:1003A00090911E018130910559F018F0029779F073
:1003B00015C081E090E090931E0180931D0112C052
:1003C00082E090E090931E0180931D010BC082E0BB
:1003D00090E090931E0180931D0104C010921E01B5
:1003E00010921D0180911D0190911E018130910597
:1003F00019F0029721F00DC0109212010AC09091DD
:10040000240180911F01892B90912001892B8093D9
:100410001201809112018093210185B980911D0103
:1004200090911E010895CF93DF9300D000D0CDB7F7
:10043000DEB78FEF84B915B811B882B961E070E00A
:1004400080E090E00E94F2000E94780010921C016F
:1004500010921B01109226011092250110921E018C
:1004600010921D011092230110922201812C912CD7
:100470005401C12CD12C7601412C512C320119820E
:100480001A821B821C8289819A81AB81BC818C3249
:100490009140A105B10530F00E94030119821A8232
:1004A0001B821C82F8EE4F16F3E05F0661047104B4
:1004B00028F00E944401412C512C320122E0821686
:1004C0009104A104B10428F00E948501812C912C93
:1004D000540182E0C816D104E104F10428F00E941E
:1004E000CE01C12CD12C760180911A018823E1F331
:1004F00010921A0189819A81AB81BC810196A11D5C
:10050000B11D89839A83AB83BC839FEF491A590A33
:10051000690A790AAFEFCA1ADA0AEA0AFA0ABFEFD9
:0E0520008B1A9B0AAB0ABB0AAECFF894FFCF32
:10052E000100000000000002000000006700000053
:02053E000000BB
:00000001FF
