:100000000C9446000C9465000C9465000C946500FB
:100010000C9465000C9465000C9465000C946500CC
:100020000C9465000C9465000C9465000C946500BC
:100030000C9465000C94A3000C9465000C9465006E
:100040000C9465000C9465000C9465000C9465009C
:100050000C9465000C9465000C9465000C9465008C
:100060000C9465000C9465000C9465000C9465007C
:100070000C9465000C9465000C9465000C9465006C
:100080000C9465000C9465000C94650011241FBE4F
:10009000CFEFD0E4DEBFCDBF11E0A0E0B1E0E0E5FE
:1000A000F5E000E00BBF02C007900D92A431B1074C
:1000B000D9F711E0A4E1B1E001C01D92A932B10766
:1000C000E1F70E941F020C94A6020C940000CF934B
:1000D000C82F8A3019F48DE00E9467009091C0000B
:1000E00095FFFCCFC093C60080E090E0CF910895CB
:1000F0008BE0809381008DE790E09093890080935E
:10010000880082E080936F00109285001092840036
:100110008091010190910201A0910301B09104012D
:100120008093180190931901A0931A01B0931B01B9
:100130008FB780688FBF089510928100089581E085
:1001400080931C0108951F920F920FB60F921124F5
:100150000BB60F922F933F934F935F936F937F93C1
:100160008F939F93AF93BF93EF93FF938091180169
:1001700090911901A0911A01B0911B010197A10959
:10018000B1098093180190931901A0931A01B093BB
:100190001B01892B8A2B8B2B91F40E949F0080914D
:1001A000010190910201A0910301B091040180939B
:1001B000180190931901A0931A01B0931B01FF91AC
:1001C000EF91BF91AF919F918F917F916F915F91CF
:1001D0004F913F912F910F900BBE0F900FBE0F903C
:1001E0001F901895609301017093020180930301A1
:1001F00090930401609318017093190180931A0180
:1002000090931B01089580911D0190911E018130F2
:10021000910559F018F0029779F015C081E090E04F
:1002200090931E0180931D0112C082E090E0909394
:100230001E0180931D010BC082E090E090931E018F
:1002400080931D0104C010921E0110921D01809127
:100250001D0190911E018130910521F082309105A0
:1002600029F00DC021E02093170109C0209117014A
:10027000243011F0220F01C021E0209317012091BA
:100280001701209321010895809127019091280161
:100290008130910559F018F0029779F015C081E08E
:1002A00090E0909328018093270112C082E090E0B3
:1002B00090932801809327010BC082E090E09093F7
:1002C00028018093270104C0109228011092270171
:1002D00080912701909128018130910521F0823091
:1002E000910521F00CC01092160109C02091160151
:1002F000283011F420E001C028E02093160120915D
:10030000160120932601089580B1282F217080B115
:100310008095982F927080B14091240150912501D1
:100320004130510561F020F04230510579F015C09F
:1003300041E050E0509325014093240112C042E077
:1003400050E050932501409324010BC042E050E05F
:10035000509325014093240104C01092250110926E
:10036000240140912401509125014230510571F43E
:10037000211105C0809100018F5F809300019923B6
:1003800029F080910001815080930001CA010895F5
:1003900080B18095847020911F013091200121301F
:1003A000310561F020F02230310579F015C021E0EF
:1003B00030E03093200120931F0112C022E030E092
:1003C0003093200120931F010BC022E030E03093D6
:1003D000200120931F0104C01092200110921F01E0
:1003E00020911F01309120012130310521F0223070
:1003F000310521F01AC01092150117C0882349F069
:1004000080911401803111F480E001C080E180937B
:1004100014012091140120932201809126019091D2
:100420002101892B822B80931501809115018093E6
:10043000230185B980911F01909120010895CF93E8
:10044000DF9300D000D0CDB7DEB78FEF84B915B8F9
:1004500011B882B961E070E080E090E00E94F200A3
:100460000E94780010921E0110921D011092280126
:10047000109227011092200110921F011092250165
:1004800010922401412C512C3201812C912C5401C9
:10049000C12CD12C760119821A821B821C8289817F
:1004A0009A81AB81BC818C329140A105B10530F0BD
:1004B0000E94030119821A821B821C82F8EECF1659
:1004C000F3E0DF06E104F10428F00E944401C12CAE
:1004D000D12C76012CE2421621E05206610471040F
:1004E00028F00E948401412C512C3201809100019E
:1004F00090E0A0E0B0E088169906AA06BB0628F0B6
:100500000E94C801812C912C540180911C018823E8
:10051000E1F310921C0189819A81AB81BC81019623
:10052000A11DB11D89839A83AB83BC839FEFC91A38
:10053000D90AE90AF90AAFEF8A1A9A0AAA0ABA0A84
:10054000BFEF4B1A5B0A6B0A7B0AA9CFF894FFCF67
:10055000020100000000000002000000006700002F
:040560000000000097
:00000001FF
